{
  "receipts": {
    "afterStates": [
      {
        "accountId": "1d21e970178a466f1298e855fb86f3f13ff83f2b000000000000000000000000",
        "data": {
          "account": {
            "balance": {
              "dataType": "bi",
              "value": "c78b470d03569b034a4c"
            },
            "codeHash": {
              "value": "xdJGAYb3IzySfn2y3McDwOUAtlPKgic7e/rYBF2FpHA=",
              "dataType": "u8ab"
            },
            "nonce": {
              "dataType": "bi",
              "value": "13d"
            },
            "storageRoot": {
              "value": "VugfFxvMVab/g0XmksD4bltI4BuZbK3AAWIvteNjtCE=",
              "dataType": "u8ab"
            }
          },
          "accountType": 0,
          "ethAddress": "0x1d21e970178a466f1298e855fb86f3f13ff83f2b",
          "hash": "c25b3117d5c523570352ad297804022579aee6b2d43d652708918d937a3e27c6",
          "timestamp": 1754759641161
        },
        "hash": "c25b3117d5c523570352ad297804022579aee6b2d43d652708918d937a3e27c6",
        "isGlobal": false,
        "timestamp": 1754759641161
      },
      {
        "accountId": "9506cd7a8a9e6cecaf9fe8bb76713b7c0d79ee4f000000000000000000000000",
        "data": {
          "account": {
            "balance": {
              "dataType": "bi",
              "value": "21af4f76506c5980000"
            },
            "codeHash": {
              "value": "xdJGAYb3IzySfn2y3McDwOUAtlPKgic7e/rYBF2FpHA=",
              "dataType": "u8ab"
            },
            "nonce": {
              "dataType": "bi",
              "value": "0"
            },
            "storageRoot": {
              "value": "VugfFxvMVab/g0XmksD4bltI4BuZbK3AAWIvteNjtCE=",
              "dataType": "u8ab"
            }
          },
          "accountType": 0,
          "ethAddress": "0x9506cd7a8a9e6cecaf9fe8bb76713b7c0d79ee4f",
          "hash": "6eedb8b37909b162a206cde59f2000d2d783eb197a8a9cc0803f5bfec170cfdd",
          "timestamp": 1754759641161
        },
        "hash": "6eedb8b37909b162a206cde59f2000d2d783eb197a8a9cc0803f5bfec170cfdd",
        "isGlobal": false,
        "timestamp": 1754759641161
      }
    ],
    "appReceiptData": {
      "accountId": "484e17fa03c2388accb587c3f9be7653431fca2e1feb27446cac60d9412eed6d",
      "data": {
        "accountType": 3,
        "amountSpent": "0x145a950564b4b0",
        "ethAddress": "0x484e17fa03c2388accb587c3f9be7653431fca2e1feb27446cac60d9412eed6d",
        "hash": "b81844cb89202716c331f8587c46f0a2a4932702a9023faea45c536a294b23e4",
        "readableReceipt": {
          "blockHash": "0x72f30a2fbb0f9c8981a4bbf5f4cf3b3942b00aa07dbb187e2d62524a6d4f5ccf",
          "blockNumber": "0x177f11",
          "chainId": "0x1fb6",
          "contractAddress": null,
          "cumulativeGasUsed": "0x5208",
          "data": "0x",
          "from": "0x1d21e970178a466f1298e855fb86f3f13ff83f2b",
          "gasLimit": "0xc350",
          "gasPrice": "0x3f84fc7516",
          "gasRefund": "0x0",
          "gasUsed": "0x5208",
          "logs": [],
          "logsBloom": "0x00000000000000000000000000000000000000000000000000000000000000000000000000000000000000000000000000000000000000000000000000000000000000000000000000000000000000000000000000000000000000000000000000000000000000000000000000000000000000000000000000000000000000000000000000000000000000000000000000000000000000000000000000000000000000000000000000000000000000000000000000000000000000000000000000000000000000000000000000000000000000000000000000000000000000000000000000000000000000000000000000000000000000000000000000000000",
          "nonce": "0x13c",
          "r": "0x641a329a98c3bcad945028d2d614b09a27a4e19cfab838c3b8fc54bdc57f4e2c",
          "s": "0x681ede9f434e97cc90ec40d7e9b9e7e96237ca689ecc4c7345045b1891965545",
          "status": 1,
          "to": "0x9506cd7a8a9e6cecaf9fe8bb76713b7c0d79ee4f",
          "transactionHash": "0x484e17fa03c2388accb587c3f9be7653431fca2e1feb27446cac60d9412eed6d",
          "transactionIndex": "0x1",
          "type": "0x0",
          "v": "0x3f90",
          "value": "0x21af4f76506c5980000"
        },
        "receipt": {
          "bitvector": {
            "value": "AAAAAAAAAAAAAAAAAAAAAAAAAAAAAAAAAAAAAAAAAAAAAAAAAAAAAAAAAAAAAAAAAAAAAAAAAAAAAAAAAAAAAAAAAAAAAAAAAAAAAAAAAAAAAAAAAAAAAAAAAAAAAAAAAAAAAAAAAAAAAAAAAAAAAAAAAAAAAAAAAAAAAAAAAAAAAAAAAAAAAAAAAAAAAAAAAAAAAAAAAAAAAAAAAAAAAAAAAAAAAAAAAAAAAAAAAAAAAAAAAAAAAAAAAAAAAAAAAAAAAAAAAAAAAAAAAAAAAAAAAAAAAAAAAAAAAAAAAAAAAAAAAAAAAAAAAAAAAAAAAAAAAAAAAAAAAAAAAAAAAA==",
            "dataType": "u8ab"
          },
          "cumulativeBlockGasUsed": {
            "dataType": "bi",
            "value": "5208"
          },
          "logs": [],
          "status": 1
        },
        "timestamp": 1754759641161,
        "txFrom": "0x1d21e970178a466f1298e855fb86f3f13ff83f2b",
        "txId": "5b5dd5be6c9bfd64323dc50a734e79a9021626d6f4254db990ffcf41919be412"
      },
      "stateId": "b81844cb89202716c331f8587c46f0a2a4932702a9023faea45c536a294b23e4",
      "timestamp": 1754759641161
    },
    "applyTimestamp": 1754759648161,
    "beforeStates": [],
    "cycle": 153984,
    "executionShardKey": "1d21e970178a466f1298e855fb86f3f13ff83f2b000000000000000000000000",
    "globalModification": 0,
    "receiptId": "5b5dd5be6c9bfd64323dc50a734e79a9021626d6f4254db990ffcf41919be412",
    "signedReceipt": {
      "proposal": {
        "accountIDs": [
          "1d21e970178a466f1298e855fb86f3f13ff83f2b000000000000000000000000",
          "9506cd7a8a9e6cecaf9fe8bb76713b7c0d79ee4f000000000000000000000000"
        ],
        "afterStateHashes": [
          "c25b3117d5c523570352ad297804022579aee6b2d43d652708918d937a3e27c6",
          "6eedb8b37909b162a206cde59f2000d2d783eb197a8a9cc0803f5bfec170cfdd"
        ],
        "appReceiptDataHash": "c1f77afe13279dc97df1682d24f3176eb433caa7c92c15e5d3340803f7a32641",
        "applied": true,
        "beforeStateHashes": [
          "5e3587fc1a0912b41da6ca378c79ca871203cf9084663e7d595b68384e7f6d63",
          "8e46a78c18be92fdf79a05feb5109a1206beffc860f6fba6fc33526e09f7777f"
        ],
        "cant_preApply": false,
        "executionShardKey": "1d21e970178a466f1298e855fb86f3f13ff83f2b000000000000000000000000",
        "txid": "5b5dd5be6c9bfd64323dc50a734e79a9021626d6f4254db990ffcf41919be412"
      },
      "proposalHash": "9b4dfd3c0cd847a702d5dcbea55fa6c16a4c80baa963ed60b459c86032fa0e66",
      "sign": {
        "owner": "6f774a9d56c6ed39973929753751f15a99dea70bfd2a3cfdcda1d0862cfd1367",
        "sig": "ad56e70748f0165322ddaf0d954490c22a8c8325873b7155b937c31e8548933aad6159b088650c77ada1dd70ff0ced5ef86add445a929de65d5385e76481920a4d2a1d8478f1d4f246e3f0ea8f3d786fa5bc5251f01b34b9903bb049d5837773"
      },
      "signaturePack": [
        {
          "owner": "21029b64c1a51787f2957178e52944302223597b393875fafb25386e3a6fdf18",
          "sig": "dba21168c0b5c5648c16610a940f4af91d830d09f51afa96e7cd0b3d450786ce3ac5201327e2d2ee256dc9d807243a718f74f96b34681f4cd6efd4bc59748000dcfd11745b36f1d137f407bb88761b1bb6e24cc19a777bc34e9bc4a16fa8f7aa"
        },
        {
          "owner": "c7afea44234e19072fd24e6172200b3e70cc45d7d66b79f1d1691ee91f758e00",
          "sig": "b5268c8b1de95415538a39a1b468cedc139b7bff04cc1d9198a087ee11c56b26f1255a2abcd0550c8b75b10c0403771f823d525743b18956d5f0f35a4ecd030cdcfd11745b36f1d137f407bb88761b1bb6e24cc19a777bc34e9bc4a16fa8f7aa"
        },
        {
          "owner": "7b29ae7318c4b136525a759989f272c913c3e187aeb8053c875cf08694b02d89",
          "sig": "ff8749ffe8adad08104386f713f1e654e62b96a8d54f99e113097f242a49272f7a12ce70856a19b872ec977a8e3e84662d2ee0096d67cac8a3c9a12023f4ff05dcfd11745b36f1d137f407bb88761b1bb6e24cc19a777bc34e9bc4a16fa8f7aa"
        },
        {
          "owner": "cad7cc7b760a08cd744a08bd47ccf70d80104e48d6cf1107a2395bfd15dd939b",
          "sig": "7eec83034f81b14364d64c2eb26f077c2beac94100df70e3ce2eb99f43670365d26039bff60bec754551bb4b546bef51d4686732ea6cc83698f6e08159f19c08dcfd11745b36f1d137f407bb88761b1bb6e24cc19a777bc34e9bc4a16fa8f7aa"
        },
        {
          "owner": "a9b5586af5fa7843196262fc8a7d21e8af4dcb182412ae39d5928355fc8c3d9f",
          "sig": "ff0c7fdb51dfc8182ea0b5f8eb2b2ce95432410bd960ac745ec660c70f17dc8e1c0725ba5bedb7fda32de51041aee09ef3589328020dd239d30f59ee7d506901dcfd11745b36f1d137f407bb88761b1bb6e24cc19a777bc34e9bc4a16fa8f7aa"
        },
        {
          "owner": "e8215ae9ac68f638e6eccb707a5e8693d8af208afe52fa20e03cfe4fd015c0e8",
          "sig": "2ff6b7c57714c15c9feecbd5b4fc3cb67b7a952ff2ca7d71b2ca8b95c1d191bed39719fdd38a73878fca65df1702d33e8af0d5213c7099647063af1846443a0fdcfd11745b36f1d137f407bb88761b1bb6e24cc19a777bc34e9bc4a16fa8f7aa"
        },
        {
          "owner": "dba94f87974a39dd540fd6a9baf78c17c6b59bef9a659d77f5106c1475f8e6fe",
          "sig": "cdc512ebc8fb9c67cebf9575af4efca753a9756e7cc445eac2c2e57a513a7fc07759bff2240137eb257f20ec428f3dd1704b1f3df76c72f0bcf3277e16e9b306dcfd11745b36f1d137f407bb88761b1bb6e24cc19a777bc34e9bc4a16fa8f7aa"
        },
        {
          "owner": "0428d21537dd6e7a7e50cbb7eb63f8f72e35a41f74426e9095b83e6025e71b27",
          "sig": "64525752dcb94897c4d4528fdd3b432f6117717eb4bea2c1f5aaff15a1e3617b50dbd61478c49eb4f57fb293234ab40bff3cf9ff4a53f50ccc4a7cee19896f0adcfd11745b36f1d137f407bb88761b1bb6e24cc19a777bc34e9bc4a16fa8f7aa"
        },
        {
          "owner": "a3036ea936ea178b1f82d618c3736a5f22d6681cb8c5ab9b9698d086bd4610c6",
          "sig": "0b98e8d07082af2d338b234396ece9eb0fc9cc766336e2d1ce7e9b5d6a9e66b65c04801a4ef29e908ae500d6c93a50438e646e6fe1e227e94b9af08f57fd3203dcfd11745b36f1d137f407bb88761b1bb6e24cc19a777bc34e9bc4a16fa8f7aa"
        },
        {
          "owner": "2d135019cdb7826d8f256049bc9b51a5377b84d2ac67b0d319b5261ff173aabd",
          "sig": "27479dcc66c9d0457d670f1616585974bda8f343a42debf9170163e34860031fcb7709e141b495bbef5e9371c011197af3d04ad94ac5762f71ca267d6f196800dcfd11745b36f1d137f407bb88761b1bb6e24cc19a777bc34e9bc4a16fa8f7aa"
        },
        {
          "owner": "a80a02a4341a6d35c1ea826c0e90f702dfc8317b67757ad37fe10d12343f1844",
          "sig": "83b049b81e9926e184e97ee114f742d95ba3e721576b814f613a83fe80fac501c48656f2a9daada98e1fc6d37246969dec162c9c625aaa2566a39944cc799f0cdcfd11745b36f1d137f407bb88761b1bb6e24cc19a777bc34e9bc4a16fa8f7aa"
        },
        {
          "owner": "2182937fe29f6742999fc81bce0111d4eedbef834dc328d1bf6a35dc001134f5",
          "sig": "052b6d322bde34c46fc0361a813db2ac92294965c6fb603c44b7ab753f39eefbca8629df021e9453047e3a8958af805656bbe6869daf3850ba3bcff445e7560ddcfd11745b36f1d137f407bb88761b1bb6e24cc19a777bc34e9bc4a16fa8f7aa"
        },
        {
          "owner": "33c3ae31d39ce43501c1457c12e3aba6f5ddfdc43fad7e926e3a248572e476d0",
          "sig": "baa40ba8e08330278d9f65068fc0cfd63d1ef2c220694e65d32519f73ef53392b357590d57732fb21afb40043a688178f9675de17ab1f10003ec7cdd65ad250edcfd11745b36f1d137f407bb88761b1bb6e24cc19a777bc34e9bc4a16fa8f7aa"
        },
        {
          "owner": "743d2491e832cd9271ebdf3b3facf0d0712a2cebf571b4a4c2fcd66cedc1448d",
          "sig": "dc4e2469275c79d0bdacc543e30df6b3c799390b9dbf197d8a20c6a8baed978ca68eb2634039c2c39312afc8991b80934e420335db565bc70261115603027a01dcfd11745b36f1d137f407bb88761b1bb6e24cc19a777bc34e9bc4a16fa8f7aa"
        },
        {
          "owner": "72f88d478125a3ee5fe479f6c1057d518900499e26cd366416bcbb9ab8982f55",
          "sig": "bd9137e393b0179f352a4f2d0dc634ce31e8d7b0201a406023b1fa4683b1710be3ef2e1a4a0c88ffa59422ca3ca7b8fecbc5598c29b0ef32054b37fa2f7d0606dcfd11745b36f1d137f407bb88761b1bb6e24cc19a777bc34e9bc4a16fa8f7aa"
        },
        {
          "owner": "2f9c70a7a01d6043b1ba1a129f5076167837db4c082dd213da325722f33c9b18",
          "sig": "c0c2fdf498281cce5cbb38f692a9a0ccef6b9e4bc8b6d5f04a28050c126f3da9afc5ae904f0ec48c74d4757c0b30d835bdd9b7999f9d3ba39a0ccdc42d2ebf05dcfd11745b36f1d137f407bb88761b1bb6e24cc19a777bc34e9bc4a16fa8f7aa"
        },
        {
          "owner": "b49545de7b47a6c2154842ee829cf54191ccd438c94d31272e94fa8a7b2b201a",
          "sig": "50606a6fb54097177a75765f8cf2014f3e906d1adb290fa13fc79416b32eb5442ea6ca8df5c958d9eb7a25148b913920c2e3a7636727b1f05425903ebaf79e03dcfd11745b36f1d137f407bb88761b1bb6e24cc19a777bc34e9bc4a16fa8f7aa"
        },
        {
          "owner": "e932ad7aa734bf221289fddd580f7551418001ecbbbf4998bb4cde35a651455c",
          "sig": "2869b0723e81896bf6ff5a5edcb39aa029f5b46ed820b74b69a1c5aca45e9ab43d7787617e93d6a46c1462a5e052ca0aeec3b228e8b252ed245899443b7d5b05dcfd11745b36f1d137f407bb88761b1bb6e24cc19a777bc34e9bc4a16fa8f7aa"
        },
        {
          "owner": "0e9850625abe08ba52ea55a5908f97c13e0994c807d17be910de1fe50c015f7d",
          "sig": "cfac6a6566eed34006b71e92a651be12017c0daf4519f25c73b3e635bcb20424623de14eca8825e9cd72ae30c69737f134577fc4ff0c9750a0dd8963523bff09dcfd11745b36f1d137f407bb88761b1bb6e24cc19a777bc34e9bc4a16fa8f7aa"
        },
        {
          "owner": "69c136c0d86573025035fd1922bb3eae0957479e3f77156b4a67bd7f02fb7ac9",
          "sig": "1b6d3d425ed1b2842288ca705324b25ab1d55868e6fbe2c59d2cf84c49b9b968af3c8728ee706b78faa6ef9c2bb4f8ff488c93d8abf0696613a66060cc017a0fdcfd11745b36f1d137f407bb88761b1bb6e24cc19a777bc34e9bc4a16fa8f7aa"
        },
        {
          "owner": "98d6673de69785e345dca680a1b4bb9493696663ae81cc0a5f39426a21137381",
          "sig": "f775625fbc5cb31fb0d9a3de410bb9a8c44a06a106f50b194651a7d4e07a7818d09b6c46e0266c230a080e3309c04199fd31c1230e788449afba39614a772f0edcfd11745b36f1d137f407bb88761b1bb6e24cc19a777bc34e9bc4a16fa8f7aa"
        },
        {
          "owner": "40b690c07d3fd239a602da571342d86ade2cd0de41143409ade2b1c0e1ff76de",
          "sig": "4b9be819e16bc790bb7b065c95bced8f6484a452bc81387968f8f34e0848d85ebfaa985c7116efca9d3d8191d1ff34c984c630c3a6ae5332873293dcc526980fdcfd11745b36f1d137f407bb88761b1bb6e24cc19a777bc34e9bc4a16fa8f7aa"
        },
        {
          "owner": "c14e8255436d70f17102a46d719e1bf9f5124fc71353676582a72a721d876456",
          "sig": "df24ee8962d5c8a866f838aea73458933b04ba2ebfc6c6713a7f7add27d6ab4cc6812f0d8b0057d27a7303e2f78094f96038e890783d90fc8d6076bae910ae00dcfd11745b36f1d137f407bb88761b1bb6e24cc19a777bc34e9bc4a16fa8f7aa"
        },
        {
          "owner": "a9f8a877cdf8c2d8bb7231837dc36aaa936c9826366828057b644fe1032ba9b1",
          "sig": "d5553acd5c4b1928bc162cb2df5b448918e5ded45250ef5b6638362baf9bf524714206463ce0e3c6f930b48bbae38f834318436224370149c418c25e6036e200dcfd11745b36f1d137f407bb88761b1bb6e24cc19a777bc34e9bc4a16fa8f7aa"
        },
        {
          "owner": "23f5d4456f97fd40402081dc61de5bbea8c40421bc6f6f9b23f10406259f3aaa",
          "sig": "73e5e9ec85c401fc640ec44f5cd25f6aae7af4f75ec62c4b3367696b22751edd1f62cc6ccd7dc2a7f81b302b815e5a34b14a7c95086dd7dc20438c4694453300dcfd11745b36f1d137f407bb88761b1bb6e24cc19a777bc34e9bc4a16fa8f7aa"
        },
        {
          "owner": "6bc1313c2d13f1d6073a4995a64691946595da0d7f32a583a369897254912b65",
          "sig": "cb2909b5d8ffceb97698683cb2b8dd55ed24126ecee6e2576ac29caf04ad8900bb3573520f4e1e36198835d00ff0006d2a6f659f753d7b12bf7d9018a604620edcfd11745b36f1d137f407bb88761b1bb6e24cc19a777bc34e9bc4a16fa8f7aa"
        },
        {
          "owner": "261dcc77ee17b6cc973e5ebcaf1580bd58574ebdce19908570baaa6f2e819a39",
          "sig": "30322b64df8eafdf5a5b124471d4e80bd59e4ee30abe99c9ac55cc7166c03ad11da18e48c38689fdea26a3ffca417d0e8c16b99c28eb1d2c1f8f4875c3ebb804dcfd11745b36f1d137f407bb88761b1bb6e24cc19a777bc34e9bc4a16fa8f7aa"
        },
        {
          "owner": "c832fb15fcfe01b34826c8633ff3c6cdca2bc68e8dec3999c61b5738ddf3ef8b",
          "sig": "f260e0778b82f055bc4b49290fe24df2ee11057c05f69f48726d137b9b6597d043bad6b13abb816fd3944b112c87474ea1e1dee74483de83de26084e0f8bf407dcfd11745b36f1d137f407bb88761b1bb6e24cc19a777bc34e9bc4a16fa8f7aa"
        },
        {
          "owner": "e460e32a686c873927bc82d42067a162a7c986e64e473f6bc049112cfa88ff5f",
          "sig": "da1045563c1cf1238909cb0017b3cb27a98c283f4eed49d2cb131d421b65ebab0ef76ffaff89a99e60fce288fb43139118c64a5d44ba6041ba1adf83337dd80cdcfd11745b36f1d137f407bb88761b1bb6e24cc19a777bc34e9bc4a16fa8f7aa"
        },
        {
          "owner": "63df53e0c2ec3ab5aa5187d69d44a383a57af1dfc0275a5fe9e5907fb6b28d83",
          "sig": "0896f3c5462cff428854b3a53f2b6a8f26ce153ec9f8b482f9347e12f3f8f3c7f638f8d6b1538e7cadb0093407076d01222b3cdbc184ca5b78bfedc7bc16f307dcfd11745b36f1d137f407bb88761b1bb6e24cc19a777bc34e9bc4a16fa8f7aa"
        },
        {
          "owner": "421ddc1c567c20894a4f12b1fda1d9129454cc10366d61cfcf3d98bad8a3b22d",
          "sig": "4aaf15cbf21c3eaea04c3c29705dd4e3b2b9476788597245f92e2b93980c97c1c6ca90c56ddf0bca17c7c2a6138f7ecce173be9a2334e0ab8e89f4e3d3ad5b0ddcfd11745b36f1d137f407bb88761b1bb6e24cc19a777bc34e9bc4a16fa8f7aa"
        },
        {
          "owner": "67aab5eaac2be14662819f5bf2405a4dafc70bb9dc27d136a7ebee6ffe5e7a9a",
          "sig": "fa47625145331574e46fb7f1ba4b26d1b8c78a01a6377c325afb18e8d6ef7f9638d00cfd3127dfa66daeb22be8beea401ce2039b25e7c5be8665697a959a8200dcfd11745b36f1d137f407bb88761b1bb6e24cc19a777bc34e9bc4a16fa8f7aa"
        },
        {
          "owner": "7b89a14adba2426e41323b1177eb94dd1d754b6faba3dba75b460735caa88dc7",
          "sig": "98c3fa68032292efc021cec20bba92bb571713c75ca39bf46c1bdbb226db94aab66c65a75a45098a8db39434ca7e75893b3014bf447f2f5ab7e5faecba39ff0cdcfd11745b36f1d137f407bb88761b1bb6e24cc19a777bc34e9bc4a16fa8f7aa"
        },
        {
          "owner": "10e16e7533c9a0938f24d77c040cc0c46ac11aeaebfa0f0a32a56306622581b6",
          "sig": "0d2627938645c7bb36bbbba5f7ea19d8c455329ed094298a365c7fda8ca5393599238b5481d945619dae413b8010350611dc9785a2fba03ffbb0b0a83296490adcfd11745b36f1d137f407bb88761b1bb6e24cc19a777bc34e9bc4a16fa8f7aa"
        },
        {
          "owner": "4a5d22c1770101a4897250765b48c11eddb508dcad354c4ea91e9b394651021b",
          "sig": "958d37487c46efcd60be0194e853d52ec8aef54484994210e7cfe56588caa35eb38e5a16bab32c7bbecdfc3982ff802162aebb6f562dab6d628ee74cacf77b0ddcfd11745b36f1d137f407bb88761b1bb6e24cc19a777bc34e9bc4a16fa8f7aa"
        },
        {
          "owner": "105fbf4d29248f6e1df94ed42a9d8a2efbe0f0a667d42c88d16b0590d07216db",
          "sig": "e633f5578f5f9f599eb61037b3388e217d68bd3824631322c0a424835779f6be098b8625bf678b5f1c1afc00297dcef43c95d7e01f5a5327cfa8f08b7f965206dcfd11745b36f1d137f407bb88761b1bb6e24cc19a777bc34e9bc4a16fa8f7aa"
        },
        {
          "owner": "495e9ca3f9880f3a2df430092a27fd1ee54a73cab93a7386b8a4b719ab65ec24",
          "sig": "3f771270cbd08b5a13e30dd1ce337af32f86a3f73557a4250ae11c8486f8ca060f7fce291b926e9489a1baa3d583a8db3ce9d138d08e27cdbe34cc3423f98905dcfd11745b36f1d137f407bb88761b1bb6e24cc19a777bc34e9bc4a16fa8f7aa"
        },
        {
          "owner": "e3ae8df998493b4d990f502594541da6b7fd4a2ee386f3433910dff71a81f60c",
          "sig": "e083520189cdf0f4ffb50dab1d5c9525305753c18562733a27ab025fee43280248182a58bcf8f766f9134a9963a3a1c776c9f4f0d438e57ceb82342d29991d08dcfd11745b36f1d137f407bb88761b1bb6e24cc19a777bc34e9bc4a16fa8f7aa"
        },
        {
          "owner": "707fb4ee2c288bd2441b9a757d4f2301dfccdd99c7a5cdb747d9022ae63cfc75",
          "sig": "31b9a164321f2924679e4b16706427efd3449e5c0e205050f6e6988218d4e719dff312dc220b41b3c88f9a2c3f7c8bf65bf70b2ff3289f32b7db06097cf7e005dcfd11745b36f1d137f407bb88761b1bb6e24cc19a777bc34e9bc4a16fa8f7aa"
        },
        {
          "owner": "1d45659847ee82a78cd3c7e8890e02592a9f9b98bd62b1b6ff572e0e3f6fbed1",
          "sig": "24774265d497d9d29fe33258a599c25165b8d9d33d5ddb24ca4719acc881f1ac9157ceebafb21b6185a0fba2f6108a6a7555c6da758ba392edb7de86d804a50edcfd11745b36f1d137f407bb88761b1bb6e24cc19a777bc34e9bc4a16fa8f7aa"
        },
        {
          "owner": "c13be145e8a506f7ef155f795869727882ebf966f6ca7951f07792e461ed88ad",
          "sig": "779e36853f9fa9d37303087d1a68d94092b572502409d7a0cbd6ad2e4d0d02f82842d60738fa8b03a05610885a67810620dc70209f9c937a6fad4b7e9e9d3609dcfd11745b36f1d137f407bb88761b1bb6e24cc19a777bc34e9bc4a16fa8f7aa"
        },
        {
          "owner": "b4c636e31e69d95535c420aa9069c55cb3cee4a470132fd5498340a0fce4b996",
          "sig": "2dcc6def066ce339deced2077c04d2a72288e484e744dbba275ba3a90c4e7522ebdf2f3ed5c33a22e23a9abb784a93dd71fb3f95da861e57dfe6c7aad7e46c0ddcfd11745b36f1d137f407bb88761b1bb6e24cc19a777bc34e9bc4a16fa8f7aa"
        },
        {
          "owner": "bed761f2071f7f8e8fc8ff45277b3cbae7a2d5f94e7d6847f141094d60dbcc04",
          "sig": "d3ff13d58f8b742ddb962f306522284e6622b2779aaec44d6eb9e580e084ee4934aaed6084d3f66979b3a529c4522b8c36665f1ae8aabeef875999be2eaf8600dcfd11745b36f1d137f407bb88761b1bb6e24cc19a777bc34e9bc4a16fa8f7aa"
        },
        {
          "owner": "c0519c00cacfc741e177205f84ee10fec4a736ae2d71d72167e626cddd826183",
          "sig": "de99b8f8e3602703bcaf67ff95c0e39488a263b659e519554913a22f469a6dae63660c30dc72efcbcc5e2572662cbd98f08e04a084109f956bb19f6a478c6900dcfd11745b36f1d137f407bb88761b1bb6e24cc19a777bc34e9bc4a16fa8f7aa"
        },
        {
          "owner": "a80fd19990a6c1669326f52600612009f6d1480064b7f0606f4ae29b9de2bdb8",
          "sig": "8d00ed25a661f6db1c0ee02d9c6c0f6b0195d3cc194d8c41ca9d65f210aea9540cb437e5acaa29f8c1d415505e0a27ec0a9adafc7a8070b386a3643e0c4bdb01dcfd11745b36f1d137f407bb88761b1bb6e24cc19a777bc34e9bc4a16fa8f7aa"
        },
        {
          "owner": "d9a769a1526f7b3d6db35ce403d3f2f059b7cfea335cc22ea37016ff1c128ec0",
          "sig": "a5a907290449aa8f022d1422f3b2aa54cd5e6eb2a58d5f0a6455673546c14a712e0ff143d712f41f3185d8b1b65df5e1b68af73f0afaa363ef784055bef43c0cdcfd11745b36f1d137f407bb88761b1bb6e24cc19a777bc34e9bc4a16fa8f7aa"
        },
        {
          "owner": "ac42c6d71ae8fc86b499561b8f4fd45eb1429b1e351958a8fd710fdfb54da227",
          "sig": "a04d5a8a03e65f119b682750bc3403c2fdf65226710d75e8c90d1d9e782501e58b0efd2f58347ee66f43e53d71160b858dadcc954498df8528b2b1d8b94a1b0ddcfd11745b36f1d137f407bb88761b1bb6e24cc19a777bc34e9bc4a16fa8f7aa"
        },
        {
          "owner": "2511af9a0c9bdd3ba818cce24a4eb5514114abcd39cd1be1b1293e31f77cf49e",
          "sig": "d11fbb41c158e45913d7a6a51738198b6216ccb6db6c7e2c452a9b3f1b4d0491cf1a5822486ea45f6d103885a460914d0f5d0972584bb81953986c74499d3a0edcfd11745b36f1d137f407bb88761b1bb6e24cc19a777bc34e9bc4a16fa8f7aa"
        },
        {
          "owner": "1ddd43077ea270d9907aaa9256993cc8d9f3407b501f6a750b0e670fb216451f",
          "sig": "c43264ce96ca1dda2f897d1a0ce0a93371117eac486fd3b827b766ca4bee73bba3ae27cee73032694e9263d3d30b1ba6c76a60f28fa859ac6a2494df5aac9e01dcfd11745b36f1d137f407bb88761b1bb6e24cc19a777bc34e9bc4a16fa8f7aa"
        },
        {
          "owner": "8ab0021578b08d2a191466db0ec2ec758b5d2715ce7520e029e63a5e565e881c",
          "sig": "eefa78f2e5025cf310953ec35d36a43d30e9ed11020408ab0403054ac875bb5f6ce721b08a6123657857fd1d9797d976530b9302d006a116de46454f211f9201dcfd11745b36f1d137f407bb88761b1bb6e24cc19a777bc34e9bc4a16fa8f7aa"
        },
        {
          "owner": "92be900f3b7d17846c7e363b12ae5cb2f0059b21ac9e59da13b3d3407fc5d9fa",
          "sig": "1a043bf074d6b367e035f275f578c6209d296ce55c1592bc9dbeae750b398a1425a6a0de4b3457c117d41490cdcdf27c7ed167562f3726a8bb6cfa39f7fe310ddcfd11745b36f1d137f407bb88761b1bb6e24cc19a777bc34e9bc4a16fa8f7aa"
        },
        {
          "owner": "74b4468fa4d34c26839bdb1c4a49613d236e218e2ed00771b4a43d2d26772848",
          "sig": "125b0ea955f29e49c796c5092e3caee8285591cb959d9899f3317de378d5a53f26d994101527cbcdedfacb3538030844953a3cb24f1c6e026b19b450d5db3207dcfd11745b36f1d137f407bb88761b1bb6e24cc19a777bc34e9bc4a16fa8f7aa"
        },
        {
          "owner": "c24cd7956147b9096664e2e880d5f826ddead855e0265aced1a144ae45c3b052",
          "sig": "5c32efcbb8f68b21216677121effc9069f4b2a7ff6aeb109e7de0827679c68218fd1ee7982f643ace20e46dd76f09d7e94cf0047111f7f44c20856d1b596e804dcfd11745b36f1d137f407bb88761b1bb6e24cc19a777bc34e9bc4a16fa8f7aa"
        },
        {
          "owner": "87cf792e8fe10cd6c30f499da2cc88ed7a542b14f0e53773be62e7b7f224cb15",
          "sig": "acfdd1d0e0f8d1dcb8ca8e73665c826294fb4b2f776f0009b086bf1aea56a0a61be34abdcf17a89b3aaa751202d4dac852a06ef14f0a37bd5c3dc7efa7c22c0edcfd11745b36f1d137f407bb88761b1bb6e24cc19a777bc34e9bc4a16fa8f7aa"
        },
        {
          "owner": "9ecd5dee03046450d5a230f86b7348436d0652e231deb526acaa59f007d24f31",
          "sig": "a0f91a6da9d303a4f509084acf7d125500aa06116d651105fc6180f538229418ef7f1089bbc53858aa7d4749e58224a493f3d79ed0d5915fad8b0324a734b70edcfd11745b36f1d137f407bb88761b1bb6e24cc19a777bc34e9bc4a16fa8f7aa"
        },
        {
          "owner": "bfc02ed18dc1d83e99a473c6f866b7043828c73ae7b560479bc2d7fd2bb1522f",
          "sig": "6af1c42e8fb3f30c55a5795f11c91502af03c3098cea784244a41238f490bdf59e14eb6fcd83eb4f768be0e3f94fe242c7463184214903cedcedf8399d1b1706dcfd11745b36f1d137f407bb88761b1bb6e24cc19a777bc34e9bc4a16fa8f7aa"
        },
        {
          "owner": "6f774a9d56c6ed39973929753751f15a99dea70bfd2a3cfdcda1d0862cfd1367",
          "sig": "098835823bcd35342cd202dd97bef8a509d5696b59ba7205ca65f216ca57afbea4bca18b7a6fabbd0932744b5d5b25539694d57e3522e200fecaa40293242507dcfd11745b36f1d137f407bb88761b1bb6e24cc19a777bc34e9bc4a16fa8f7aa"
        },
        {
          "owner": "3a689a35e469d5d3e945bceb899f39946bf599fa65b2de379b322394b2cbedb7",
          "sig": "735d726c0956cda0fe441b4abb7218775caf282ab4345b065ffce23e312040f09bded0dd8bf6ac52cf1c06c32a136b0bee3a4dbc4ae1a990fa110c05f1f03501dcfd11745b36f1d137f407bb88761b1bb6e24cc19a777bc34e9bc4a16fa8f7aa"
        },
        {
          "owner": "500230405d45b2bb8bb3bda7a5d08adc18061b09a8a30f356ec116108f2556a2",
          "sig": "901210cc32c92a9bc80490bfdc45c0936baa914eb5bda4b0affd1d7b69838a254938a6c12b99b1ca897e22fa6e91ce00e4f56d393ba0fdafcb071ddae10d310ddcfd11745b36f1d137f407bb88761b1bb6e24cc19a777bc34e9bc4a16fa8f7aa"
        },
        {
          "owner": "b046ce6300432a6753bbef14959a924fe637ffa8aab3031e41dd14376adeaff4",
          "sig": "251ae387b91b10c3570104b7faf269f1ea6e2a8a3cd439c2fca911f251cd1e60627e72d62312039087f49d95f182ecb2b796cba3d3dd7b54a05bd56b9a91a706dcfd11745b36f1d137f407bb88761b1bb6e24cc19a777bc34e9bc4a16fa8f7aa"
        },
        {
          "owner": "ce54082f02dfc23a3b0b6ec9c53ca4c63bb704063d07b7f441de33ff877dbc66",
          "sig": "4f12061688944faaf537d8f600ed53ae32dd99e3ac5cc554d8a247293aeaa7b5b515c2cddd3f0bad517fd1c73a54230434631c255d3e37e1c81b818f4644980adcfd11745b36f1d137f407bb88761b1bb6e24cc19a777bc34e9bc4a16fa8f7aa"
        },
        {
          "owner": "ba2efb6764f01a19f03d67fff3b3a4a415950f630565833074587001fb1db1db",
          "sig": "3ca55c855c82a345dadbd199e9b155473d208e687c570058e9ebba3a4e2fdb1a253830cd907863f936bbf20f37a478df34a2625cde0bb264b3b73903a9d7bd03dcfd11745b36f1d137f407bb88761b1bb6e24cc19a777bc34e9bc4a16fa8f7aa"
        },
        {
          "owner": "cecf9dc67264b288b9c797e8ab233fc70c344149a2e9413f69fbc9fee3e464b1",
          "sig": "4791f485e784cec33d0b4bc9454650cf5f5d01ce2c9fdadd7bb4bdd69854789da844dac980f546f7112b27f68cc3b8db07982d5a14924ac25eb54ec976f6c905dcfd11745b36f1d137f407bb88761b1bb6e24cc19a777bc34e9bc4a16fa8f7aa"
        },
        {
          "owner": "c9e2f6b1198d7ccce27a33edea17789c141c998b01d0e9133d28409fa6b84c61",
          "sig": "117ec900950405284d1cebde4a82af921b6e6300330cdb3401e82005088acdb749b58e385687a727a9239d1ca42fa8263a58a6959cde6931af3574d43342f905dcfd11745b36f1d137f407bb88761b1bb6e24cc19a777bc34e9bc4a16fa8f7aa"
        },
        {
          "owner": "3cfa14aaec010d7bc02f27cb0e02cb3a631b8e8c472bfa88215fd17e12911ad5",
          "sig": "2bf7a38c96ab6bd4c5415bcaae1296a6a4f3e8e431c3fb8601c9c96ae82f7fea917754408f2a99cd949fd84b2b4a811ea42f8288db0e24b8c7790b76f865130fdcfd11745b36f1d137f407bb88761b1bb6e24cc19a777bc34e9bc4a16fa8f7aa"
        },
        {
          "owner": "d789ae82b107938758f0e52c1c69a3fb0e4df10f4ae4c81927be5e9b7c6af4e7",
          "sig": "8e40d10e87350d8cb79ee8e98f9f0ee34127979cb17063966ebe19385d221233f505e2b248c37eab01566e1e7500a98557c810e5516b6abc45498a377318a70bdcfd11745b36f1d137f407bb88761b1bb6e24cc19a777bc34e9bc4a16fa8f7aa"
        },
        {
          "owner": "8e5eb307b3850a6d9f7c257566d2fe189c08e26bc2ae74ca132442ca6973c074",
          "sig": "317a2983768c5e879d00d58449e684c47def9172df7f7cdc7690c005dfd13f696e2b17c24b8da9a4754662d0a33f8c1c7ad029b561a6907b6b4f1ac93c6c9e0edcfd11745b36f1d137f407bb88761b1bb6e24cc19a777bc34e9bc4a16fa8f7aa"
        },
        {
          "owner": "fce2878eaa8b32813a476218fd02a42eee963efe3db7c58696a01e78536bd5e3",
          "sig": "fdb8da13773f86d75ff1194d4d57969ce92ee85249fc21575cfaac2ffcf682e4b55862abb1188580164557559f349f7ce958a63ce9431042ed4963d9d642460edcfd11745b36f1d137f407bb88761b1bb6e24cc19a777bc34e9bc4a16fa8f7aa"
        },
        {
          "owner": "51ca804caa22032e88a08a05895c1edf583c7e40bed9eb70d9021b0bc25b479b",
          "sig": "5495ddeca345c4016ecdef336b08e37b489c2379d450a1dd0dbe1de638a71f6790eeac09ada73ebefbf8793dfa55f4045bc92ec63422a38b4a8d339515f23204dcfd11745b36f1d137f407bb88761b1bb6e24cc19a777bc34e9bc4a16fa8f7aa"
        },
        {
          "owner": "31d70423201c49a7b263ed1afdf781fa1174b41bfa0770d2b3a873941b16bf27",
          "sig": "9e3af48c9a9354a6eb2b294375df3337b521a9ca74a3d6a3270a0df77ca7aa2e5050c700fc377967b945b7f6fddfa947671816c3a665db2bd0880af6d1531a06dcfd11745b36f1d137f407bb88761b1bb6e24cc19a777bc34e9bc4a16fa8f7aa"
        },
        {
          "owner": "407d339227e40727ee51d4dff002b3eb12fce6628b0e312f55897f75a1205112",
          "sig": "833aea2428f7f4326267084e8ef12f77991173db07e8928cacfb9e413c3d85c51da3493d1f455ed3b6e2e78dc943ddb99bf8ced14565e3d60e0f8bec5f69e40cdcfd11745b36f1d137f407bb88761b1bb6e24cc19a777bc34e9bc4a16fa8f7aa"
        },
        {
          "owner": "ab25f41c6c354aa74370ddd7ea168e9e7f47a9152a2ee9e03b4b4697c9c9617c",
          "sig": "475eda9ccb2bbffa14978e916153826e7794be82fc69f7cfcc6b9cf28f194daf803993c010d56d6ade2adb45ef03baeba180f05472ab2909fdbafc32cb9f5b00dcfd11745b36f1d137f407bb88761b1bb6e24cc19a777bc34e9bc4a16fa8f7aa"
        },
        {
          "owner": "be0867fc82e8fc5f836aa012d4b9f36f95863f1d089d6bebc9d3d397a283ff33",
          "sig": "98e5963b7bc5b0124ab60c0b31ecb3ecb24983999dc61108701c80170f61250a492992c6d13f41b913cf9b2e6f0324538edd9061cc92be5c6712cb6e484be709dcfd11745b36f1d137f407bb88761b1bb6e24cc19a777bc34e9bc4a16fa8f7aa"
        },
        {
          "owner": "93eba00afafba2813505c5259f9c90cca2886a6cbbf9486128ec25e3cc6354ec",
          "sig": "4e4171f2266ceefa63758adb5ea78f815580a94bb4684a7ae86e8b8e4d15855f72c657760a013d514cbee6decb202e1df5678f1eb6077e0a1d305465d3b59003dcfd11745b36f1d137f407bb88761b1bb6e24cc19a777bc34e9bc4a16fa8f7aa"
        },
        {
          "owner": "77fffef7ffa5989a821f7ef630845d78bbbc814f3e266af1f51393f87b3b76b2",
          "sig": "be8a13a274e19a7c9ee102332a8c9f297d4cd69493e68801456ff8bee1f4f04b5567ab1feb659dfeb58b30913b210ff3c07d2309f6aedd7d0e4573dbcc305e0cdcfd11745b36f1d137f407bb88761b1bb6e24cc19a777bc34e9bc4a16fa8f7aa"
        },
        {
          "owner": "3e9d9543a1473fab2cb6117b417accded190da2875d8b57c1af6f33c626d1d9e",
          "sig": "1c19ae7f1545ccd6bbad0ff30748503baed874c88e15d1c82b2cdc04dd31d7531f257de6bb71092da1a815317956b84dc088b734676d02bfce741a4e9614f705dcfd11745b36f1d137f407bb88761b1bb6e24cc19a777bc34e9bc4a16fa8f7aa"
        },
        {
          "owner": "eb0276487c85667708b62cff918ea606f7b4545d730306bbcf110b0a207110a7",
          "sig": "9a19c0784ab114d012556cfce3d561d81d20bbd79e4f03d80296ce34f644d1631688b8a10815bd2cb0fbbcf79877f46b075cf5a871b7740ca3f83dbec8440804dcfd11745b36f1d137f407bb88761b1bb6e24cc19a777bc34e9bc4a16fa8f7aa"
        },
        {
          "owner": "811634fa3c8ec68fd695fdadfe775dd60ffafcf8a87de6895bc334501e38b15c",
          "sig": "f5316adf2ae77721cf03e6ab3b86682ad48af4f9968e85ebcba4c6caee1aa7ea0b8a35ce03a0a584f5222cc23effb28c2d5da4101cb21d7834db7c2cdf212801dcfd11745b36f1d137f407bb88761b1bb6e24cc19a777bc34e9bc4a16fa8f7aa"
        },
        {
          "owner": "8cc0a78b98d06977db43d1154fecb88214b5b43bf78d1e93a2e3d7d81890da17",
          "sig": "c6575ed7e0b8a8956e418312c8bb0feb5e87cc69f611c88a450e512cfaf36fe4cc2b15d535760130cb81234b2710552e040109904694d980d30d9aa8d58b710fdcfd11745b36f1d137f407bb88761b1bb6e24cc19a777bc34e9bc4a16fa8f7aa"
        },
        {
          "owner": "16edb08e997e28b51d97051a81ac209f23d9820c3c7962e744642cc3fce18d28",
          "sig": "8d17336ba15c8790c5b790eb7934f6df9f2465f1905303eddf677200fd3504e5ba02f91a72bf34d506e8dfebf8b3f6e0fd5308af5a7cc1a5096ca4cf28c2c60bdcfd11745b36f1d137f407bb88761b1bb6e24cc19a777bc34e9bc4a16fa8f7aa"
        },
        {
          "owner": "b03de48329493ad6326c46c3d64fca28f505df1416321eaf4fb311aa76d186b4",
          "sig": "adc13a3d6e157103921fa2eec3afcf9ffc018ec45a9bfc146954eba42fef45558ab51583ebc9f71feffb8d2237ae92fedbf522e2a609fa5c24e65359239ef802dcfd11745b36f1d137f407bb88761b1bb6e24cc19a777bc34e9bc4a16fa8f7aa"
        },
        {
          "owner": "accee4eafde043625c3b28622b912869af9512aca70385475cde46c3f67b2a26",
          "sig": "24d00802bc7f5c5e9d4fbc6f98685dca2f3293e8181b4878ff590594d688aef00d0cf30558d4c1e5f299e7fd99945f1b398b64b44a1d5ffb642f7736fab84c0adcfd11745b36f1d137f407bb88761b1bb6e24cc19a777bc34e9bc4a16fa8f7aa"
        },
        {
          "owner": "ea572fa37bf75607f2e39ef3c0edc4cf927ce82a697b4eb4199572257395c77b",
          "sig": "f2b11df30ec25e9d02eefebba39005e4dd4546b606d8ebd2e57eccf911a240e1153e659efc1df8932bc2eef2f0a66989a17771d9fe525f388ed0472fd79e4909dcfd11745b36f1d137f407bb88761b1bb6e24cc19a777bc34e9bc4a16fa8f7aa"
        },
        {
          "owner": "949b40d10b3f8fc28146ecad86be3eb04e1aabc8b7954873dbc6ec78b060dd77",
          "sig": "01d9826c22c2b7cf1b86e73eb9454dc135cbf09c4e0b0b373db2982bd86b95ba747759f57909018b33a492e410f47528cae128582e5a61169fdec3184c94980fdcfd11745b36f1d137f407bb88761b1bb6e24cc19a777bc34e9bc4a16fa8f7aa"
        },
        {
          "owner": "f6ff161ba0ae0a5a9ba6edfed012dd03d3a32caad97e2d7fb5b35c9cd95b8153",
          "sig": "ba18b982912741a9900ef025d34b829b8660a6ea53c0e0ff26a73f32c46b2a544dac5c0cb943a29ac08cfc0d5cab0075a24641169ad1c6d30d1a9cb5b195120cdcfd11745b36f1d137f407bb88761b1bb6e24cc19a777bc34e9bc4a16fa8f7aa"
        },
        {
          "owner": "7f833c7fceaa6b5b6588fbf00f11a5c3f8b3de91eeebdffee250bda10c84f931",
          "sig": "573d1ee282a5d370f591cb880bbb49014623f27977e4696d8af89bb91d3b9390edbb8d956939e7db700ef106e49d12c28f3640be56b50a419f19d30f55958700dcfd11745b36f1d137f407bb88761b1bb6e24cc19a777bc34e9bc4a16fa8f7aa"
        },
        {
          "owner": "0ed682b10ca4c809bf2faa1096b9120a15dc530544f65e2898ba5470945d0cfb",
          "sig": "8a9dc027a374b096d0cc94a3e50279151f3c59bdd32c438978ff4de9acd0ccf7d7ef5b2faa94331cdad3a49533c26c8241b6a9132eb55568997f29a344509804dcfd11745b36f1d137f407bb88761b1bb6e24cc19a777bc34e9bc4a16fa8f7aa"
        },
        {
          "owner": "e1f77931c46379e6cbbf5cbff7c4c81249264a926aecfd4c81193c8aa5eeff0e",
          "sig": "13d0680ddfad65e47b4aaa379fb9b6611122d85574a0d6718ce501449403cf21313cd6bee91b58ddf206ee9e926a034b1ad991008ac71f2cdd3da7140a70290fdcfd11745b36f1d137f407bb88761b1bb6e24cc19a777bc34e9bc4a16fa8f7aa"
        },
        {
          "owner": "aba164778757e3d31fc971e00c8d3a68416212b0a55269dffb82e1adfb7dca97",
          "sig": "bbfd31fea3b7faf13b2a9e5501b7418cc49c21edfeb1b3edc49b839b6f80abe0606954cd912c68eb8036bf92f289daaa52937c21037ac3970e803ae76f5cb001dcfd11745b36f1d137f407bb88761b1bb6e24cc19a777bc34e9bc4a16fa8f7aa"
        },
        {
          "owner": "52e8f30e44069581de6cb571461a26170fdf354c4e2f779b3da7686685d84386",
          "sig": "38710131f03d6b8e9ecd3c6c5c6d73709341a5a67b006201f3059bf8bafcb7a3627982723f7aaa311e9332c99e7828e658ec5aeba8a752f338de274e60570e0fdcfd11745b36f1d137f407bb88761b1bb6e24cc19a777bc34e9bc4a16fa8f7aa"
        },
        {
          "owner": "890d1029689fba73a03effa6468f79a69118febf4562632c204065dfaf8806de",
          "sig": "056e31f0f63a7a565e7fb4713807c00ec672c47e7cb45d3f611c6620382e8b8996ac683feb313c0bab8862c363f09f27a2fc2e8d74da0b4dcc5aae38f5d48a05dcfd11745b36f1d137f407bb88761b1bb6e24cc19a777bc34e9bc4a16fa8f7aa"
        },
        {
          "owner": "053c2b1df722c5fdb3c87c08e6db54f6b03930b2f59898f72862323a8d841ed5",
          "sig": "cd405db82813be120dacc6e7d11bbe1a6dca81d81ac66b12601a3970664713eedf30acd96b1462987450ba0e216f01b2878d0a9e61881db32828b61a0ddac307dcfd11745b36f1d137f407bb88761b1bb6e24cc19a777bc34e9bc4a16fa8f7aa"
        },
        {
          "owner": "79fa73cc490f1c3e3eba511a411a614b79606be414d790e49f860ce034e3eeff",
          "sig": "ebb1db3fc29e7655520d53e24c3dae0b8d226e8d0cd4d1e3db784645249361330b376583324028a7e769ed0b461a8f9d469758b55122416f15ab8f144f332b08dcfd11745b36f1d137f407bb88761b1bb6e24cc19a777bc34e9bc4a16fa8f7aa"
        },
        {
          "owner": "c412361843c0b560dde65788a6ad53421f14fa5a272e4d6bd7cbdddec3b72ce7",
          "sig": "7184ded132a3e75bf09c5b84b95441257f2fbdfc48388e7c2a163beaacb7ba4782291d708ded0cb77b8acfbb37fed2498b3c86b5060d965b4c9b5951b0a81508dcfd11745b36f1d137f407bb88761b1bb6e24cc19a777bc34e9bc4a16fa8f7aa"
        },
        {
          "owner": "2703edda0af4c57dea3ba70ca3ef21b37799eb45a7108e7f873d6a2715434346",
          "sig": "5921631396203153ae9bf5a1d4717c0668f592b1018116cac30640fc3a5165009182dd37b5266cccf310a37cffb507fb2cdf18e3daecbccb2e04b5e6a4797b0cdcfd11745b36f1d137f407bb88761b1bb6e24cc19a777bc34e9bc4a16fa8f7aa"
        },
        {
          "owner": "0ad6eaf129cfb262152aedddcb1fdb14dd2971629b8440c799829ac2bcb9ff6f",
          "sig": "56e6288843941a2d6a138c47fe905b971115011ec973793599aac0e2fee31972f88b3a3d7e1dfcf59c8bc6f183d51f3b6b31c4ff4c436c9401ee6553aaf9b00bdcfd11745b36f1d137f407bb88761b1bb6e24cc19a777bc34e9bc4a16fa8f7aa"
        },
        {
          "owner": "ef571ef0a4337a63faee4ce3b5640fa3e01594de2c63df9c1e81a5c4e8c00b8e",
          "sig": "05578cf5ff5946e11f53efd4b3cb166e921947b881c4d4df826a104ea611d5eceeeb52cd8e47eadf1bd8a84779f23c9a6b5ead1be2557d485e0d19da9b26c603dcfd11745b36f1d137f407bb88761b1bb6e24cc19a777bc34e9bc4a16fa8f7aa"
        },
        {
          "owner": "6e0d7bdb5a4b71d22844498bc2ddd5e423b24b0b91e77fcb6825288c9b800d9f",
          "sig": "11169c2cb13e05d3c54f153e45179672e96659ca9614c9f31a485c4d020f61fc8b3c98748c219527f976e907e72af03201f7f22964cfdf19b78acbe99f3d6304dcfd11745b36f1d137f407bb88761b1bb6e24cc19a777bc34e9bc4a16fa8f7aa"
        },
        {
          "owner": "a6344e277957645100fa4d749024d9d0e035724f885beb1c0eb05fe532c4ab39",
          "sig": "5cbee97ea2d4a03d668bd673b1ef50378da43d857fa27be5527fe26141df6fe5a92d37b032c78e06be7a32ba8a6f42c3fbc547e48535bc28536a53ef1aa6270cdcfd11745b36f1d137f407bb88761b1bb6e24cc19a777bc34e9bc4a16fa8f7aa"
        },
        {
          "owner": "346e752fd793890de2cef9f6ffc09e420a12ce55fe0abecd970d101bfa106f33",
          "sig": "86d722bb54ccac251e5d39042e976a557bc2ff4d8a51854f8fdc444794f49c8e8127f96eab28b3ea2a91164d9c4036d2cf6dcc98c77fd046d1f10c8d81b36e03dcfd11745b36f1d137f407bb88761b1bb6e24cc19a777bc34e9bc4a16fa8f7aa"
        },
        {
          "owner": "8556279df767ad44c4be5c4de4402c158a5f2e285ff404256f13a1830f53b954",
          "sig": "5b647fc93c691e995862efc906a8c0cfe794d64a29d386ad9399333a0b405569640d66215c3733e295679fab5741ffca3b0e4ef52f25dafe405a77259c7a9c02dcfd11745b36f1d137f407bb88761b1bb6e24cc19a777bc34e9bc4a16fa8f7aa"
        },
        {
          "owner": "7981e7b60eb77765486aeca4242b28014984da0c4dc4caf5958a55c466a53e54",
          "sig": "7e6bf2b8f64092a8af71be5b4428497f55138364d4b23a004cda6a4d300f5c199778d4fe2442dc20ce8280acc199373f3845f4b2ed22106a220430a62263cf05dcfd11745b36f1d137f407bb88761b1bb6e24cc19a777bc34e9bc4a16fa8f7aa"
        },
        {
          "owner": "35feb7f0c720f482697cb5f4ee9248e4a4cb707fb4e2935c7480b23dae71a254",
          "sig": "85d5aa53e6adc681aa574c787e5d55eda7256cad2253a2782dfdbca529f3faf586c29e7376b6ace25695deaf0cbd1cec1fb88f97a164183a622bac5925874a05dcfd11745b36f1d137f407bb88761b1bb6e24cc19a777bc34e9bc4a16fa8f7aa"
        },
        {
          "owner": "e52b063e6abd46741739741ad06a659c527f7c45bb95a1c16a4f752e832d74f7",
          "sig": "55b9ae6cd85a0bc484ab7a1ffc19c8be4ac8f171f3ebd2b089821d092ae02827ff3b088f73db661bd24a04cfacae14cc4c2ac727076a9f1aa0327eb56856c003dcfd11745b36f1d137f407bb88761b1bb6e24cc19a777bc34e9bc4a16fa8f7aa"
        },
        {
          "owner": "88b74bf79173cda4cf55cbcd1aa632fbf54e005f95ecf6602aede390faa717e4",
          "sig": "796c2dd1a989ba0b6cceb65cdbf09da18ad86cea2e4893e015cc4db02a0d0bf480fd7c54ff046a5a713a1f2ec103aa8edd78f10048d26559aef425c4732c7606dcfd11745b36f1d137f407bb88761b1bb6e24cc19a777bc34e9bc4a16fa8f7aa"
        },
        {
          "owner": "e1bf37c55961ba63c9addc6fc685df4a6d8257feabf5e4ca810139df5da53e56",
          "sig": "d19ce06b7e004a2d090257504466195a48a2537cf0162e8b4c607e0de8692dd2bf1b70737d665a1890c7830c8cacdfbb80b6b84b5e845ed2ab1e6ed02cefe10bdcfd11745b36f1d137f407bb88761b1bb6e24cc19a777bc34e9bc4a16fa8f7aa"
        },
        {
          "owner": "04287373f4ca597fd8022bb112c00384d48cf40e0c13267fc2125a2aec6f98ce",
          "sig": "e14ff3907279bb8aef593cef2d61d0a66fc8d680f0be57876c51d5ac667b2d8fd2ee1ad6e276795e39aa4c264e8dd78889170a5df3a42797eea463a55741ff01dcfd11745b36f1d137f407bb88761b1bb6e24cc19a777bc34e9bc4a16fa8f7aa"
        },
        {
          "owner": "a22143120e89028d9f79b4e793ed05ba72df079195847cfc25d7b54f8e5bf181",
          "sig": "3070a78cd4b5b58ba3ac54b8e276e93dc5ad7c7d999c33ef9662e4fc6822da694370fd4fa2f0621cd2940c4b77c6fb9967f8883a028de84f6a94b6bf4f85130ddcfd11745b36f1d137f407bb88761b1bb6e24cc19a777bc34e9bc4a16fa8f7aa"
        },
        {
          "owner": "f6a2d1fd267b3f4d29917961f6ee1fb9536bb65c23ac6fdfb2532fe1c1b5002a",
          "sig": "8b5577c2553396d35736c17a6fd084401091c54710875c539ec5c22fcc3a847f45f6f44f23bfa0830478acc41422ab53e985f1beceb01e9d50d332b67bb2610edcfd11745b36f1d137f407bb88761b1bb6e24cc19a777bc34e9bc4a16fa8f7aa"
        },
        {
          "owner": "f883d3834970d00f7eecc42d2b07d2bd02aadf0006f51ed8df1e282295aa0f28",
          "sig": "6ea99756668fd640dec7ec20f9f63101bde53b33d5e9d42f9373676b52cfbdca9a765999112eaea5979b2f9132138a36db1512c70eb442d2cb0075fc10efec0bdcfd11745b36f1d137f407bb88761b1bb6e24cc19a777bc34e9bc4a16fa8f7aa"
        },
        {
          "owner": "7d9a2d709c2e3d531b58c5256a5f20e0d6560520813d8fff9bbc3263a743fc16",
          "sig": "34c0e86d4fde4a5d1dd140d3b8c49d7c8aabb7f2ec43fd499a18cce9fe9b762829b161a2930ec795703f305209028d35954ab09b356d192f23ec46ddda790d09dcfd11745b36f1d137f407bb88761b1bb6e24cc19a777bc34e9bc4a16fa8f7aa"
        },
        {
          "owner": "703456a47d8793264f3677eff3bb8aa260c4bbd5f9ebd9c78ddda1bf9ac706f2",
          "sig": "5b9c64f1912180f5517c5921cbbe7e7925709602ab73a4f3e6c1a10504786d1d3f5c2de961acae0354be20a511b997c1d2287138a7af39cbfd762104f0e1750cdcfd11745b36f1d137f407bb88761b1bb6e24cc19a777bc34e9bc4a16fa8f7aa"
        },
        {
          "owner": "aa9d02355dc8f2421edc9216b514e150f46985f770c76909709c6325bf197eca",
          "sig": "f0dccdc09c7d3437f3e43933c38f57b82ac8a769cf7299b6a5e0c01fc6e210f6af9cd74619196a7be8444b04e83641c9ffedf92d190aa23b154df503ba0a5b02dcfd11745b36f1d137f407bb88761b1bb6e24cc19a777bc34e9bc4a16fa8f7aa"
        },
        {
          "owner": "4ae262c90e336e48af14951947a73d02def35e7fdc462fece98ada3b045890c2",
          "sig": "3ba948aa3854d62cd7f49eac1aa5bce821b1b8da1bcce9aad75dbabd40e4e326ceb0e715813e8cf153a3b7865cb3af5a62d43522ed14c89c1fc546c0fe3a9d06dcfd11745b36f1d137f407bb88761b1bb6e24cc19a777bc34e9bc4a16fa8f7aa"
        },
        {
          "owner": "c231a0e9e290ced882f1397703051838a133120f7373c68d0a71fb95f9435bca",
          "sig": "bc3df43df2b425a12e2b867bdb3172ed6ff9b4de8e280b9ad1e14df8243417f2689100a7b95f63e23261bab8bed214c344a89a5efaf8ecac54fcbf49c84bc10fdcfd11745b36f1d137f407bb88761b1bb6e24cc19a777bc34e9bc4a16fa8f7aa"
        },
        {
          "owner": "461bbb6d77d5ebd3f4e1c399d6699769a0a1624fc4dcbeb09f4feed882c69acf",
          "sig": "cb872ff4c4c89f69487858cc16b1c61574acac23bff9e277c4a79242b5e72eced65a00887c0672c0072e4d8063252b68f4db904da71c9d63f96e757e02b39608dcfd11745b36f1d137f407bb88761b1bb6e24cc19a777bc34e9bc4a16fa8f7aa"
        },
        {
          "owner": "bf1d1fa755334d2ec4ea95db04a1cc55c960a52cbc4b6322ec502f3aa8d141a6",
          "sig": "9dedc1a8cc3b70de40064bc2a12681c7d83838eb7b8caac7814ac87d0c9db958c69f41f993173115d0f71b0c2feca24d39c51d2e3717978d284c60a70f7ae900dcfd11745b36f1d137f407bb88761b1bb6e24cc19a777bc34e9bc4a16fa8f7aa"
        },
        {
          "owner": "adf5c481c57b76755cdb5f35f96ea62f1aa6de1a7f54679a797be0ae80cbbc92",
          "sig": "a37dd8c2373d8bcd8badebdcdf541ab4a23ec021e19efffcff15e0ec90a03b6dbc73c2fc617585674da1e5af000b377a90cc7b0ab925c2a6f3bc5c0eb2dd6105dcfd11745b36f1d137f407bb88761b1bb6e24cc19a777bc34e9bc4a16fa8f7aa"
        },
        {
          "owner": "7ae07172fb3c165bb404c8994f943187e1c8948c9ccc83e1c4dd9078dfab3e14",
          "sig": "0a09a2d6102b9411beff0b77d7568cccae8d8e21a282ddde5dfef62d180732af3b64a9e84fa8f927c329d20297d5621017fbc48035eb8d995d75ca84c98e1506dcfd11745b36f1d137f407bb88761b1bb6e24cc19a777bc34e9bc4a16fa8f7aa"
        },
        {
          "owner": "40f5850da0671d0ecce46916bbabf0fc4d67e45dd2c753678446cdc145387a98",
          "sig": "505ac30a1a207e76ce1851421308f247eb6fa9abb65dc5b132f8cefd2c1399770dbd618c040c3a240acbd9d9deebd52b868a68cad6aafb6e9130af0c1b5ea501dcfd11745b36f1d137f407bb88761b1bb6e24cc19a777bc34e9bc4a16fa8f7aa"
        }
      ],
      "voteOffsets": [7, 7, 7, 7, 7, 7, 7, 7, 7, 7, 7, 7, 7, 7, 7, 7, 7, 7, 7, 7, 7, 7, 7, 7, 7, 7, 7, 7, 7, 7, 7, 7, 7, 7, 7, 7, 7, 7, 7, 7, 7, 7, 7, 7, 7, 7, 7, 7, 7, 7, 7, 7, 7, 7, 7, 7, 7, 7, 7, 7, 7, 7, 7, 7, 7, 7, 7, 7, 7, 7, 7, 7, 7, 7, 7, 7, 7, 7, 7, 7, 7, 7, 7, 7, 7, 7, 7, 7, 7, 7, 7, 7, 7, 7, 7, 7, 7, 7, 7, 7, 7, 7, 7, 7, 7, 7, 7, 7, 7, 7, 7, 7, 7, 7, 7, 7, 7, 7, 7, 7]
    },
    "timestamp": 1754759641161,
    "tx": {
      "originalTxData": {
        "timestampReceipt": {
          "cycleCounter": 153984,
          "cycleMarker": "949975854e5d1635c54a2aec35bf657a36b66ebad3f53f90b8c97449ffaacbef",
          "sign": {
            "owner": "a9f8a877cdf8c2d8bb7231837dc36aaa936c9826366828057b644fe1032ba9b1",
            "sig": "49ef8db125aaaa4ba919669a576015214c503ae58f3c5f1435641d5c483c55c52ebd65bf5b418f8f34b97f7908e2e644b5e91bed291d3563859bfe718629bc07ea5d1d1a60c671b12d84b7160ac9cc836caf6d73bb28a0e0f07936942f7ba4a5"
          },
          "timestamp": 1754759641161,
          "txId": "5b5dd5be6c9bfd64323dc50a734e79a9021626d6f4254db990ffcf41919be412"
        },
        "tx": {
          "raw": "0xf87282013c853f84fc751682c350949506cd7a8a9e6cecaf9fe8bb76713b7c0d79ee4f8a021af4f76506c598000080823f90a0641a329a98c3bcad945028d2d614b09a27a4e19cfab838c3b8fc54bdc57f4e2ca0681ede9f434e97cc90ec40d7e9b9e7e96237ca689ecc4c7345045b1891965545",
          "timestamp": 1754759639256
        }
      },
      "timestamp": 1754759641161,
      "txId": "5b5dd5be6c9bfd64323dc50a734e79a9021626d6f4254db990ffcf41919be412"
    }
  },
  "success": true
}